:020000040000FA
:1000000052EF01F0F76A140FF66E000EF7220900A6
:10001000F55012004D6561737572656420566F6C02
:1000200074616765203D20254C756D560A0D0000F2
:10003000F76A400FF66E000EF7220900F550120025
:100040000C0013001A00959E8C7E460E116E000E59
:10005000126ED4EF01F0000C2D6A2E6A010E2F6E85
:10006000DA6AD96A326A250E316EEA6A290EE96EB9
:1000700032C0E2FF31C0E1FF2FC030F0D890E55030
:10008000EE02F3502D22F4502E22302EF7D72DC041
:10009000DEFF2EC02DF02E6AD8B02E2A312AD8B419
:1000A000322A2F2A2F500508E0E173EF00F0C284B6
:1000B000C2B4FED7C3CF05F0C4CF06F0246A236ACA
:1000C00006C022F005C021F024C028F023C027F08C
:1000D00006C026F005C025F02C6A2B6A130E2A6E86
:1000E000880E296EB9D703C00AF002C009F001C01A
:1000F00008F000C007F008C007F009C008F00AC007
:1001000009F00A6A0A320932083207320A32093221
:10011000083207323F0E0A16AE0E186E000E196E28
:10012000D4EF01F0000C006A016A026A036A486AAF
:10013000496A4A6A4B6A47504610451044102CE001
:10014000200E4C6ED8904036413642364336483603
:1001500049364A364B3647504B5C08E146504A5CBC
:1001600005E14550495C02E14450485C0FE34450CE
:10017000485E4550D8A0453C495E4650D8A0463C14
:100180004A5E4750D8A0473C4B5ED88000360136C7
:10019000023603364C2ED6D7EA6A480EE96E000CBA
:1001A000E950386E3B0E3F6E9A0E3E6ECA0E3D6EA3
:1001B0003C6A0A0E3A6E37C043F036C042F035C092
:1001C00041F034C040F03FC047F03EC046F03DC073
:1001D00045F03CC044F0A7DF0150EFCF34F0ECCF46
:1001E00035F0ECCF36F0ECCF37F000520FE13A505B
:1001F000010A0CE038500BE00F0B3A5C01E00DE215
:1002000038BE0BD038BC03D0200E02D0386A300E76
:10021000002600509EA8FED7AD6E3FC043F03EC002
:1002200042F03DC041F03CC040F0476A466A456A32
:100230000A0E446E78DF03C03FF002C03EF001C0FA
:100240003DF000C03CF03A2EB6D73EEF01F0336AE5
:100250003350D8DE332A006E00509EA8FED7AD6E14
:10026000130E335CF5E1410EE96E0AC037F009C0A8
:1002700036F008C035F007C034F092D7160E346E51
:100280003450C0DE342A006E00509EA8FED7AD6EFA
:100290001A0E345CF5E14E0E1F6E020E206ED4EF86
:1002A00001F0000CF86AD09EEA6AE96A810EAF6E2E
:1002B000A20EAC6E900EAB6EC180C182C184C1969D
:1002C000000E956E956A8C6AFF0E926EC190C19277
:1002D000C194C196C19CC29CC28EC18EC280000EC8
:1002E000016EC250C70B0110C26E100E006E002EC0
:1002F000FED700000C6A0E6A020E0D6E106A0F6ABD
:10030000460E116E000E126E136A156A140E146EEC
:10031000176A010E166EAE0E186E000E196E1A6A6E
:100320001C6A140E1B6E1E6A030E1D6E4E0E1F6E8F
:10033000020E206E0B6A820ED56E0B0ED76EDC0E8F
:10034000D66EF294820ED56E0B0ED76EDC0ED66E84
:10035000F294D8900B34006E6BDE026E010E002416
:1003600067DEEA6E02C0E9FFEFCF02F0E92AEFCFC5
:1003700000F0ECCF01F0EC2AEFCF03F002E1EC2A21
:10038000ED52EC50015C11E10050035C0EE1ED52C6
:10039000ED52EE6AEE6A02BE08D0EC52ECCFFAFFE4
:1003A000ED52EFCFE8FFF96E00010B2A030E0B5C54
:1003B000D0E10B6AD650D7CF03F0F2B4C5D7FAD745
:0603C000FF0E0B6E0300AE
:020000040030CA
:0E00000000270E0E000181000FC00FE00F4020
:00000001FF
;PIC18F452
